{
  "contractName": "Election",
  "abi": [
    {
      "constant": true,
      "inputs": [
        {
          "name": "",
          "type": "address"
        }
      ],
      "name": "voters2",
      "outputs": [
        {
          "name": "",
          "type": "bool"
        }
      ],
      "payable": false,
      "stateMutability": "view",
      "type": "function"
    },
    {
      "constant": true,
      "inputs": [
        {
          "name": "",
          "type": "address"
        }
      ],
      "name": "voters3",
      "outputs": [
        {
          "name": "",
          "type": "bool"
        }
      ],
      "payable": false,
      "stateMutability": "view",
      "type": "function"
    },
    {
      "constant": true,
      "inputs": [],
      "name": "candidatesCount",
      "outputs": [
        {
          "name": "",
          "type": "uint256"
        }
      ],
      "payable": false,
      "stateMutability": "view",
      "type": "function"
    },
    {
      "constant": true,
      "inputs": [
        {
          "name": "",
          "type": "uint256"
        }
      ],
      "name": "candidates",
      "outputs": [
        {
          "name": "id",
          "type": "uint256"
        },
        {
          "name": "name",
          "type": "string"
        },
        {
          "name": "voteCount",
          "type": "uint256"
        }
      ],
      "payable": false,
      "stateMutability": "view",
      "type": "function"
    },
    {
      "constant": false,
      "inputs": [],
      "name": "unpause",
      "outputs": [],
      "payable": false,
      "stateMutability": "nonpayable",
      "type": "function"
    },
    {
      "constant": true,
      "inputs": [],
      "name": "paused",
      "outputs": [
        {
          "name": "",
          "type": "bool"
        }
      ],
      "payable": false,
      "stateMutability": "view",
      "type": "function"
    },
    {
      "constant": false,
      "inputs": [],
      "name": "renounceOwnership",
      "outputs": [],
      "payable": false,
      "stateMutability": "nonpayable",
      "type": "function"
    },
    {
      "constant": false,
      "inputs": [],
      "name": "pause",
      "outputs": [],
      "payable": false,
      "stateMutability": "nonpayable",
      "type": "function"
    },
    {
      "constant": true,
      "inputs": [],
      "name": "owner",
      "outputs": [
        {
          "name": "",
          "type": "address"
        }
      ],
      "payable": false,
      "stateMutability": "view",
      "type": "function"
    },
    {
      "constant": true,
      "inputs": [
        {
          "name": "",
          "type": "address"
        }
      ],
      "name": "voters",
      "outputs": [
        {
          "name": "",
          "type": "bool"
        }
      ],
      "payable": false,
      "stateMutability": "view",
      "type": "function"
    },
    {
      "constant": false,
      "inputs": [
        {
          "name": "_newOwner",
          "type": "address"
        }
      ],
      "name": "transferOwnership",
      "outputs": [],
      "payable": false,
      "stateMutability": "nonpayable",
      "type": "function"
    },
    {
      "inputs": [],
      "payable": false,
      "stateMutability": "nonpayable",
      "type": "constructor"
    },
    {
      "anonymous": false,
      "inputs": [
        {
          "indexed": true,
          "name": "_candidateId",
          "type": "uint256"
        }
      ],
      "name": "votedEvent",
      "type": "event"
    },
    {
      "anonymous": false,
      "inputs": [],
      "name": "Pause",
      "type": "event"
    },
    {
      "anonymous": false,
      "inputs": [],
      "name": "Unpause",
      "type": "event"
    },
    {
      "anonymous": false,
      "inputs": [
        {
          "indexed": true,
          "name": "previousOwner",
          "type": "address"
        }
      ],
      "name": "OwnershipRenounced",
      "type": "event"
    },
    {
      "anonymous": false,
      "inputs": [
        {
          "indexed": true,
          "name": "previousOwner",
          "type": "address"
        },
        {
          "indexed": true,
          "name": "newOwner",
          "type": "address"
        }
      ],
      "name": "OwnershipTransferred",
      "type": "event"
    },
    {
      "constant": false,
      "inputs": [
        {
          "name": "_name",
          "type": "string"
        }
      ],
      "name": "addCandidate",
      "outputs": [],
      "payable": false,
      "stateMutability": "nonpayable",
      "type": "function"
    },
    {
      "constant": false,
      "inputs": [
        {
          "name": "_candidateId",
          "type": "uint256"
        }
      ],
      "name": "vote",
      "outputs": [],
      "payable": false,
      "stateMutability": "nonpayable",
      "type": "function"
    },
    {
      "constant": false,
      "inputs": [
        {
          "name": "_candidateId",
          "type": "uint256"
        }
      ],
      "name": "vote2",
      "outputs": [],
      "payable": false,
      "stateMutability": "nonpayable",
      "type": "function"
    },
    {
      "constant": false,
      "inputs": [
        {
          "name": "_candidateId",
          "type": "uint256"
        }
      ],
      "name": "vote3",
      "outputs": [],
      "payable": false,
      "stateMutability": "nonpayable",
      "type": "function"
    }
  ],
  "bytecode": "0x608060405260008060146101000a81548160ff0219169083151502179055503480156200002b57600080fd5b50336000806101000a81548173ffffffffffffffffffffffffffffffffffffffff021916908373ffffffffffffffffffffffffffffffffffffffff160217905550620000bb6040805190810160405280600c81526020017f417273656e696f2048616c6c00000000000000000000000000000000000000008152506200015f640100000000026401000000009004565b6200010a6040805190810160405280600d81526020017f4a6f686e6e7920436172736f6e000000000000000000000000000000000000008152506200015f640100000000026401000000009004565b620001596040805190810160405280600781526020017f476572616c646f000000000000000000000000000000000000000000000000008152506200015f640100000000026401000000009004565b620002a9565b600060149054906101000a900460ff161515156200017c57600080fd5b600160056000828254019250508190555060606040519081016040528060055481526020018281526020016000815250600460006005548152602001908152602001600020600082015181600001556020820151816001019080519060200190620001e9929190620001fa565b506040820151816002015590505050565b828054600181600116156101000203166002900490600052602060002090601f016020900481019282601f106200023d57805160ff19168380011785556200026e565b828001600101855582156200026e579182015b828111156200026d57825182559160200191906001019062000250565b5b5090506200027d919062000281565b5090565b620002a691905b80821115620002a257600081600090555060010162000288565b5090565b90565b6111a980620002b96000396000f3006080604052600436106100da576000357c0100000000000000000000000000000000000000000000000000000000900463ffffffff16806292af1b146100df5780630121b93f1461013a5780632b6772d2146101675780632d35a8a2146101c25780633477ee2e146101ed5780633ac25af8146102a15780633f4ba83a146102ce578063462e91ec146102e55780635c975abb1461034e578063715018a61461037d5780637bdb46b5146103945780638456cb59146103c15780638da5cb5b146103d8578063a3ec138d1461042f578063f2fde38b1461048a575b600080fd5b3480156100eb57600080fd5b50610120600480360381019080803573ffffffffffffffffffffffffffffffffffffffff1690602001909291905050506104cd565b604051808215151515815260200191505060405180910390f35b34801561014657600080fd5b50610165600480360381019080803590602001909291905050506104ed565b005b34801561017357600080fd5b506101a8600480360381019080803573ffffffffffffffffffffffffffffffffffffffff1690602001909291905050506106fd565b604051808215151515815260200191505060405180910390f35b3480156101ce57600080fd5b506101d761071d565b6040518082815260200191505060405180910390f35b3480156101f957600080fd5b5061021860048036038101908080359060200190929190505050610723565b6040518084815260200180602001838152602001828103825284818151815260200191508051906020019080838360005b83811015610264578082015181840152602081019050610249565b50505050905090810190601f1680156102915780820380516001836020036101000a031916815260200191505b5094505050505060405180910390f35b3480156102ad57600080fd5b506102cc600480360381019080803590602001909291905050506107e5565b005b3480156102da57600080fd5b506102e36109f6565b005b3480156102f157600080fd5b5061034c600480360381019080803590602001908201803590602001908080601f0160208091040260200160405190810160405280939291908181526020018383808284378201915050505050509192919290505050610ab4565b005b34801561035a57600080fd5b50610363610b4c565b604051808215151515815260200191505060405180910390f35b34801561038957600080fd5b50610392610b5f565b005b3480156103a057600080fd5b506103bf60048036038101908080359060200190929190505050610c61565b005b3480156103cd57600080fd5b506103d6610e72565b005b3480156103e457600080fd5b506103ed610f32565b604051808273ffffffffffffffffffffffffffffffffffffffff1673ffffffffffffffffffffffffffffffffffffffff16815260200191505060405180910390f35b34801561043b57600080fd5b50610470600480360381019080803573ffffffffffffffffffffffffffffffffffffffff169060200190929190505050610f57565b604051808215151515815260200191505060405180910390f35b34801561049657600080fd5b506104cb600480360381019080803573ffffffffffffffffffffffffffffffffffffffff169060200190929190505050610f77565b005b60026020528060005260406000206000915054906101000a900460ff1681565b600060149054906101000a900460ff1615151561050957600080fd5b600160003373ffffffffffffffffffffffffffffffffffffffff1673ffffffffffffffffffffffffffffffffffffffff16815260200190815260200160002060009054906101000a900460ff161515156105cb576040517f08c379a00000000000000000000000000000000000000000000000000000000081526004018080602001828103825260128152602001807f5573657220616c726561647920766f746564000000000000000000000000000081525060200191505060405180910390fd5b6000811180156105dd57506005548111155b1515610651576040517f08c379a00000000000000000000000000000000000000000000000000000000081526004018080602001828103825260118152602001807f496e76616c69642043616e64696461746500000000000000000000000000000081525060200191505060405180910390fd5b60018060003373ffffffffffffffffffffffffffffffffffffffff1673ffffffffffffffffffffffffffffffffffffffff16815260200190815260200160002060006101000a81548160ff02191690831515021790555060056004600083815260200190815260200160002060020160008282540192505081905550807ffff3c900d938d21d0990d786e819f29b8d05c1ef587b462b939609625b684b1660405160405180910390a250565b60036020528060005260406000206000915054906101000a900460ff1681565b60055481565b6004602052806000526040600020600091509050806000015490806001018054600181600116156101000203166002900480601f0160208091040260200160405190810160405280929190818152602001828054600181600116156101000203166002900480156107d55780601f106107aa576101008083540402835291602001916107d5565b820191906000526020600020905b8154815290600101906020018083116107b857829003601f168201915b5050505050908060020154905083565b600060149054906101000a900460ff1615151561080157600080fd5b600360003373ffffffffffffffffffffffffffffffffffffffff1673ffffffffffffffffffffffffffffffffffffffff16815260200190815260200160002060009054906101000a900460ff161515156108c3576040517f08c379a00000000000000000000000000000000000000000000000000000000081526004018080602001828103825260128152602001807f5573657220616c726561647920766f746564000000000000000000000000000081525060200191505060405180910390fd5b6000811180156108d557506005548111155b1515610949576040517f08c379a00000000000000000000000000000000000000000000000000000000081526004018080602001828103825260118152602001807f496e76616c69642043616e64696461746500000000000000000000000000000081525060200191505060405180910390fd5b6001600360003373ffffffffffffffffffffffffffffffffffffffff1673ffffffffffffffffffffffffffffffffffffffff16815260200190815260200160002060006101000a81548160ff02191690831515021790555060016004600083815260200190815260200160002060020160008282540192505081905550807ffff3c900d938d21d0990d786e819f29b8d05c1ef587b462b939609625b684b1660405160405180910390a250565b6000809054906101000a900473ffffffffffffffffffffffffffffffffffffffff1673ffffffffffffffffffffffffffffffffffffffff163373ffffffffffffffffffffffffffffffffffffffff16141515610a5157600080fd5b600060149054906101000a900460ff161515610a6c57600080fd5b60008060146101000a81548160ff0219169083151502179055507f7805862f689e2f13df9f062ff482ad3ad112aca9e0847911ed832e158c525b3360405160405180910390a1565b600060149054906101000a900460ff16151515610ad057600080fd5b600160056000828254019250508190555060606040519081016040528060055481526020018281526020016000815250600460006005548152602001908152602001600020600082015181600001556020820151816001019080519060200190610b3b9291906110d8565b506040820151816002015590505050565b600060149054906101000a900460ff1681565b6000809054906101000a900473ffffffffffffffffffffffffffffffffffffffff1673ffffffffffffffffffffffffffffffffffffffff163373ffffffffffffffffffffffffffffffffffffffff16141515610bba57600080fd5b6000809054906101000a900473ffffffffffffffffffffffffffffffffffffffff1673ffffffffffffffffffffffffffffffffffffffff167ff8df31144d9c2f0f6b59d69b8b98abd5459d07f2742c4df920b25aae33c6482060405160405180910390a260008060006101000a81548173ffffffffffffffffffffffffffffffffffffffff021916908373ffffffffffffffffffffffffffffffffffffffff160217905550565b600060149054906101000a900460ff16151515610c7d57600080fd5b600260003373ffffffffffffffffffffffffffffffffffffffff1673ffffffffffffffffffffffffffffffffffffffff16815260200190815260200160002060009054906101000a900460ff16151515610d3f576040517f08c379a00000000000000000000000000000000000000000000000000000000081526004018080602001828103825260128152602001807f5573657220616c726561647920766f746564000000000000000000000000000081525060200191505060405180910390fd5b600081118015610d5157506005548111155b1515610dc5576040517f08c379a00000000000000000000000000000000000000000000000000000000081526004018080602001828103825260118152602001807f496e76616c69642043616e64696461746500000000000000000000000000000081525060200191505060405180910390fd5b6001600260003373ffffffffffffffffffffffffffffffffffffffff1673ffffffffffffffffffffffffffffffffffffffff16815260200190815260200160002060006101000a81548160ff02191690831515021790555060036004600083815260200190815260200160002060020160008282540192505081905550807ffff3c900d938d21d0990d786e819f29b8d05c1ef587b462b939609625b684b1660405160405180910390a250565b6000809054906101000a900473ffffffffffffffffffffffffffffffffffffffff1673ffffffffffffffffffffffffffffffffffffffff163373ffffffffffffffffffffffffffffffffffffffff16141515610ecd57600080fd5b600060149054906101000a900460ff16151515610ee957600080fd5b6001600060146101000a81548160ff0219169083151502179055507f6985a02210a168e66602d3235cb6db0e70f92b3ba4d376a33c0f3d9434bff62560405160405180910390a1565b6000809054906101000a900473ffffffffffffffffffffffffffffffffffffffff1681565b60016020528060005260406000206000915054906101000a900460ff1681565b6000809054906101000a900473ffffffffffffffffffffffffffffffffffffffff1673ffffffffffffffffffffffffffffffffffffffff163373ffffffffffffffffffffffffffffffffffffffff16141515610fd257600080fd5b610fdb81610fde565b50565b600073ffffffffffffffffffffffffffffffffffffffff168173ffffffffffffffffffffffffffffffffffffffff161415151561101a57600080fd5b8073ffffffffffffffffffffffffffffffffffffffff166000809054906101000a900473ffffffffffffffffffffffffffffffffffffffff1673ffffffffffffffffffffffffffffffffffffffff167f8be0079c531659141344cd1fd0a4f28419497f9722a3daafe3b4186f6b6457e060405160405180910390a3806000806101000a81548173ffffffffffffffffffffffffffffffffffffffff021916908373ffffffffffffffffffffffffffffffffffffffff16021790555050565b828054600181600116156101000203166002900490600052602060002090601f016020900481019282601f1061111957805160ff1916838001178555611147565b82800160010185558215611147579182015b8281111561114657825182559160200191906001019061112b565b5b5090506111549190611158565b5090565b61117a91905b8082111561117657600081600090555060010161115e565b5090565b905600a165627a7a72305820e4caa94ec71c2d36ab314767791a0bce0d30952cf9eadb206a943fc203773e850029",
  "source": "\npragma solidity ^0.4.24;\n\n//open zeppelin used for circuit breaker pattern\n//import \"/Users/Physics/Code/ethElectionsOZ/node_modules/openzeppelin-solidity/contracts/ownership/Ownable.sol\";\nimport \"/Users/Physics/Code/ethElectionsOZ/node_modules/openzeppelin-solidity/contracts/lifecycle/Pausable.sol\";\nimport \"/Users/Physics/Code/ethElectionsOZ/node_modules/openzeppelin-solidity/contracts/math/SafeMath.sol\";\n\ncontract Election is Pausable {\n    \n    //using SafeMath for uint;\n    //constructor store/read candidate\n    struct Candidate {\n        uint id;\n        string name;\n        uint voteCount;\n    }\n\n    /* we store the accounts that have voted with this mapping \n    from a Voter's address to a boolean indicating true if a Voter has voted\n    - each account can vote 3 times: a first place vote counts for 5 votes, \n    a second place vote: 3, and a third place vote: 1. */\n    mapping(address => bool) public voters;\n    mapping(address => bool) public voters2;\n    mapping(address => bool) public voters3;\n\n    //map Candidate struct to a uint for storage\n    mapping(uint => Candidate) public candidates;\n\n    //uint for keeping track of the number of candidates\n    uint public candidatesCount;\n\n    //voted event emitted after an account makes one of their 3 choices\n    event votedEvent (\n        uint indexed _candidateId\n    );\n\n    /* 3 candidates are initialized when the contract is created. \n    I do not personally know any of these people. */\n    constructor () public {\n        addCandidate(\"Arsenio Hall\");\n        addCandidate(\"Johnny Carson\");\n        addCandidate(\"Geraldo\");\n    }\n\n    /* the addCandidate function takes in the name of our candidate\n    and then increase the candidatesCount variable. It then creates\n    a new Candidate struct initialized with 0 votes and adds it to\n    the candidates mapping */\n    function addCandidate(string _name) public whenNotPaused {\n        //require(candidatesCount <= 64, \"Maximum of 64 Candidates has been reached\");\n        candidatesCount += 1;\n        candidates[candidatesCount] = Candidate(candidatesCount, _name, 0);\n    }\n\n    /* the vote function handles a Voter's first choice which\n    is worth a total of five votes */\n    function vote(uint _candidateId) public whenNotPaused {\n        //require that a voter hasn't voted before\n        require(!voters[msg.sender], \"User already voted\");\n\n        //ensure that we are voting for a valid candidate\n        require(_candidateId > 0 && _candidateId <= candidatesCount, \"Invalid Candidate\");\n        \n        //record that voter has voted\n        voters[msg.sender] = true; \n       \n        //update candidate vote count by five votes\n        candidates[_candidateId].voteCount += 5;\n\n        //trigger voted event\n        emit votedEvent(_candidateId); \n    }\n\n    /* the vote2 function handles a Voter's second choice which\n    is worth a total of three votes */\n    function vote2(uint _candidateId) public whenNotPaused {\n        //require voter hasn't voted before\n        require(!voters2[msg.sender], \"User already voted\");\n\n        //check voting for valid candidate\n        require(_candidateId > 0 && _candidateId <= candidatesCount, \"Invalid Candidate\");\n        \n        //record that voter has voted\n        voters2[msg.sender] = true; \n       \n        //update candidate vote count\n        candidates[_candidateId].voteCount += 3;\n\n        //trigger voted event\n        emit votedEvent(_candidateId); \n    }\n    \n    /* the vote function handles a Voter's third choice which\n    is worth a total of one vote */\n    function vote3(uint _candidateId) public whenNotPaused {\n        //require voter hasn't voted before\n        require(!voters3[msg.sender], \"User already voted\");\n\n        //check voting for valid candidate\n        require(_candidateId > 0 && _candidateId <= candidatesCount, \"Invalid Candidate\");\n        \n        //record that voter has voted\n        voters3[msg.sender] = true; \n       \n        //update candidate vote count\n        candidates[_candidateId].voteCount += 1;\n\n        //trigger voted event\n        emit votedEvent(_candidateId); \n    }\n}\n\n",
  "sourcePath": "/Users/Physics/Code/ethElectionsOZ/contracts/Election.sol",
  "compiler": {
    "name": "solc",
    "version": "0.4.24+commit.e67f0147.Emscripten.clang"
  },
  "schemaVersion": "2.0.1",
  "updatedAt": "2018-08-27T00:22:28.569Z"
}