{
  "contractName": "Election",
  "abi": [
    {
      "constant": true,
      "inputs": [
        {
          "name": "",
          "type": "address"
        }
      ],
      "name": "voters2",
      "outputs": [
        {
          "name": "",
          "type": "bool"
        }
      ],
      "payable": false,
      "stateMutability": "view",
      "type": "function"
    },
    {
      "constant": true,
      "inputs": [
        {
          "name": "",
          "type": "address"
        }
      ],
      "name": "voters3",
      "outputs": [
        {
          "name": "",
          "type": "bool"
        }
      ],
      "payable": false,
      "stateMutability": "view",
      "type": "function"
    },
    {
      "constant": true,
      "inputs": [],
      "name": "candidatesCount",
      "outputs": [
        {
          "name": "",
          "type": "uint256"
        }
      ],
      "payable": false,
      "stateMutability": "view",
      "type": "function"
    },
    {
      "constant": true,
      "inputs": [
        {
          "name": "",
          "type": "uint256"
        }
      ],
      "name": "candidates",
      "outputs": [
        {
          "name": "id",
          "type": "uint256"
        },
        {
          "name": "name",
          "type": "string"
        },
        {
          "name": "voteCount",
          "type": "uint256"
        }
      ],
      "payable": false,
      "stateMutability": "view",
      "type": "function"
    },
    {
      "constant": true,
      "inputs": [
        {
          "name": "",
          "type": "address"
        }
      ],
      "name": "voters",
      "outputs": [
        {
          "name": "",
          "type": "bool"
        }
      ],
      "payable": false,
      "stateMutability": "view",
      "type": "function"
    },
    {
      "inputs": [],
      "payable": false,
      "stateMutability": "nonpayable",
      "type": "constructor"
    },
    {
      "anonymous": false,
      "inputs": [
        {
          "indexed": true,
          "name": "_candidateId",
          "type": "uint256"
        }
      ],
      "name": "votedEvent",
      "type": "event"
    },
    {
      "constant": false,
      "inputs": [
        {
          "name": "_name",
          "type": "string"
        }
      ],
      "name": "addCandidate",
      "outputs": [],
      "payable": false,
      "stateMutability": "nonpayable",
      "type": "function"
    },
    {
      "constant": false,
      "inputs": [
        {
          "name": "_candidateId",
          "type": "uint256"
        }
      ],
      "name": "vote",
      "outputs": [],
      "payable": false,
      "stateMutability": "nonpayable",
      "type": "function"
    },
    {
      "constant": false,
      "inputs": [
        {
          "name": "_candidateId",
          "type": "uint256"
        }
      ],
      "name": "vote2",
      "outputs": [],
      "payable": false,
      "stateMutability": "nonpayable",
      "type": "function"
    },
    {
      "constant": false,
      "inputs": [
        {
          "name": "_candidateId",
          "type": "uint256"
        }
      ],
      "name": "vote3",
      "outputs": [],
      "payable": false,
      "stateMutability": "nonpayable",
      "type": "function"
    }
  ],
  "bytecode": "0x608060405234801561001057600080fd5b5061005e6040805190810160405280600c81526020017f417273656e696f2048616c6c00000000000000000000000000000000000000008152506100fd640100000000026401000000009004565b6100ab6040805190810160405280600d81526020017f4a6f686e6e7920436172736f6e000000000000000000000000000000000000008152506100fd640100000000026401000000009004565b6100f86040805190810160405280600781526020017f476572616c646f000000000000000000000000000000000000000000000000008152506100fd640100000000026401000000009004565b61021f565b6004600081548092919060010191905055506060604051908101604052806004548152602001828152602001600081525060036000600454815260200190815260200160002060008201518160000155602082015181600101908051906020019061016992919061017a565b506040820151816002015590505050565b828054600181600116156101000203166002900490600052602060002090601f016020900481019282601f106101bb57805160ff19168380011785556101e9565b828001600101855582156101e9579182015b828111156101e85782518255916020019190600101906101cd565b5b5090506101f691906101fa565b5090565b61021c91905b80821115610218576000816000905550600101610200565b5090565b90565b610bce806200022f6000396000f300608060405260043610610098576000357c0100000000000000000000000000000000000000000000000000000000900463ffffffff16806292af1b1461009d5780630121b93f146100f85780632b6772d2146101255780632d35a8a2146101805780633477ee2e146101ab5780633ac25af81461025f578063462e91ec1461028c5780637bdb46b5146102f5578063a3ec138d14610322575b600080fd5b3480156100a957600080fd5b506100de600480360381019080803573ffffffffffffffffffffffffffffffffffffffff16906020019092919050505061037d565b604051808215151515815260200191505060405180910390f35b34801561010457600080fd5b506101236004803603810190808035906020019092919050505061039d565b005b34801561013157600080fd5b50610166600480360381019080803573ffffffffffffffffffffffffffffffffffffffff169060200190929190505050610590565b604051808215151515815260200191505060405180910390f35b34801561018c57600080fd5b506101956105b0565b6040518082815260200191505060405180910390f35b3480156101b757600080fd5b506101d6600480360381019080803590602001909291905050506105b6565b6040518084815260200180602001838152602001828103825284818151815260200191508051906020019080838360005b83811015610222578082015181840152602081019050610207565b50505050905090810190601f16801561024f5780820380516001836020036101000a031916815260200191505b5094505050505060405180910390f35b34801561026b57600080fd5b5061028a60048036038101908080359060200190929190505050610678565b005b34801561029857600080fd5b506102f3600480360381019080803590602001908201803590602001908080601f016020809104026020016040519081016040528093929190818152602001838380828437820191505050505050919291929050505061086d565b005b34801561030157600080fd5b50610320600480360381019080803590602001909291905050506108ea565b005b34801561032e57600080fd5b50610363600480360381019080803573ffffffffffffffffffffffffffffffffffffffff169060200190929190505050610add565b604051808215151515815260200191505060405180910390f35b60016020528060005260406000206000915054906101000a900460ff1681565b6000803373ffffffffffffffffffffffffffffffffffffffff1673ffffffffffffffffffffffffffffffffffffffff16815260200190815260200160002060009054906101000a900460ff1615151561045e576040517f08c379a00000000000000000000000000000000000000000000000000000000081526004018080602001828103825260128152602001807f5573657220616c726561647920766f746564000000000000000000000000000081525060200191505060405180910390fd5b60008111801561047057506004548111155b15156104e4576040517f08c379a00000000000000000000000000000000000000000000000000000000081526004018080602001828103825260118152602001807f496e76616c69642043616e64696461746500000000000000000000000000000081525060200191505060405180910390fd5b60016000803373ffffffffffffffffffffffffffffffffffffffff1673ffffffffffffffffffffffffffffffffffffffff16815260200190815260200160002060006101000a81548160ff02191690831515021790555060056003600083815260200190815260200160002060020160008282540192505081905550807ffff3c900d938d21d0990d786e819f29b8d05c1ef587b462b939609625b684b1660405160405180910390a250565b60026020528060005260406000206000915054906101000a900460ff1681565b60045481565b6003602052806000526040600020600091509050806000015490806001018054600181600116156101000203166002900480601f0160208091040260200160405190810160405280929190818152602001828054600181600116156101000203166002900480156106685780601f1061063d57610100808354040283529160200191610668565b820191906000526020600020905b81548152906001019060200180831161064b57829003601f168201915b5050505050908060020154905083565b600260003373ffffffffffffffffffffffffffffffffffffffff1673ffffffffffffffffffffffffffffffffffffffff16815260200190815260200160002060009054906101000a900460ff1615151561073a576040517f08c379a00000000000000000000000000000000000000000000000000000000081526004018080602001828103825260128152602001807f5573657220616c726561647920766f746564000000000000000000000000000081525060200191505060405180910390fd5b60008111801561074c57506004548111155b15156107c0576040517f08c379a00000000000000000000000000000000000000000000000000000000081526004018080602001828103825260118152602001807f496e76616c69642043616e64696461746500000000000000000000000000000081525060200191505060405180910390fd5b6001600260003373ffffffffffffffffffffffffffffffffffffffff1673ffffffffffffffffffffffffffffffffffffffff16815260200190815260200160002060006101000a81548160ff02191690831515021790555060016003600083815260200190815260200160002060020160008282540192505081905550807ffff3c900d938d21d0990d786e819f29b8d05c1ef587b462b939609625b684b1660405160405180910390a250565b600460008154809291906001019190505550606060405190810160405280600454815260200182815260200160008152506003600060045481526020019081526020016000206000820151816000015560208201518160010190805190602001906108d9929190610afd565b506040820151816002015590505050565b600160003373ffffffffffffffffffffffffffffffffffffffff1673ffffffffffffffffffffffffffffffffffffffff16815260200190815260200160002060009054906101000a900460ff161515156109ac576040517f08c379a00000000000000000000000000000000000000000000000000000000081526004018080602001828103825260128152602001807f5573657220616c726561647920766f746564000000000000000000000000000081525060200191505060405180910390fd5b6000811180156109be57506004548111155b1515610a32576040517f08c379a00000000000000000000000000000000000000000000000000000000081526004018080602001828103825260118152602001807f496e76616c69642043616e64696461746500000000000000000000000000000081525060200191505060405180910390fd5b60018060003373ffffffffffffffffffffffffffffffffffffffff1673ffffffffffffffffffffffffffffffffffffffff16815260200190815260200160002060006101000a81548160ff021916908315150217905550600380600083815260200190815260200160002060020160008282540192505081905550807ffff3c900d938d21d0990d786e819f29b8d05c1ef587b462b939609625b684b1660405160405180910390a250565b60006020528060005260406000206000915054906101000a900460ff1681565b828054600181600116156101000203166002900490600052602060002090601f016020900481019282601f10610b3e57805160ff1916838001178555610b6c565b82800160010185558215610b6c579182015b82811115610b6b578251825591602001919060010190610b50565b5b509050610b799190610b7d565b5090565b610b9f91905b80821115610b9b576000816000905550600101610b83565b5090565b905600a165627a7a7230582072b6732ef2adfda29c11dbc545a070581456eb9877edea566edbb8d0b87078630029",
  "source": "\npragma solidity ^0.4.24;\n\ncontract Election {\n    \n    //constructor store/read candidate\n    struct Candidate {\n        uint id;\n        string name;\n        uint voteCount;\n    }\n\n    /* STORE accounts that have voted - each account can vote 3 times:\n    a first place vote counts for 5 votes, a second place vote: 3, and\n    a third place vote: 1. */\n    mapping(address => bool) public voters;\n    mapping(address => bool) public voters2;\n    mapping(address => bool) public voters3;\n\n    //map Candidate struct to a uint for storage\n    mapping(uint => Candidate) public candidates;\n\n    //uint for keeping track of the number of candidates\n    uint public candidatesCount;\n\n    //voted event emitted after an account makes one of their 3 choices\n    event votedEvent (\n        uint indexed _candidateId\n    );\n\n    /* 3 candidates are initialized when the contract is created. \n    I do not personally know any of these people. */\n    constructor () public {\n        addCandidate(\"Arsenio Hall\");\n        addCandidate(\"Johnny Carson\");\n        addCandidate(\"Geraldo\");\n    }\n\n    /* the addCandidate function takes in the name of our candidate\n    and then increase the candidatesCount variable. It then creates\n    a new Candidate struct initialized with 0 votes and adds it to\n    the candidates mapping */\n    function addCandidate(string _name) public {\n        candidatesCount ++;\n        candidates[candidatesCount] = Candidate(candidatesCount, _name, 0);\n    }\n\n\n    function vote(uint _candidateId) public {\n        //require that a voter hasn't voted before\n        require(!voters[msg.sender], \"User already voted\");\n\n        //ensure that we are voting for a valid candidate\n        require(_candidateId > 0 && _candidateId <= candidatesCount, \"Invalid Candidate\");\n        \n        //record that voter has voted\n        voters[msg.sender] = true; \n       \n        //update candidate vote count\n        candidates[_candidateId].voteCount += 5;\n\n        //trigger voted event\n        emit votedEvent(_candidateId); \n\n    }\n\n    function vote2(uint _candidateId) public {\n        //require voter hasn't voted before\n        require(!voters2[msg.sender], \"User already voted\");\n\n        //check voting for valid candidate\n        require(_candidateId > 0 && _candidateId <= candidatesCount, \"Invalid Candidate\");\n        \n        //record that voter has voted\n        voters2[msg.sender] = true; \n       \n        //update candidate vote count\n        candidates[_candidateId].voteCount += 3;\n\n        //trigger voted event\n        emit votedEvent(_candidateId); \n    }\n\n    function vote3(uint _candidateId) public {\n        //require voter hasn't voted before\n        require(!voters3[msg.sender], \"User already voted\");\n\n        //check voting for valid candidate\n        require(_candidateId > 0 && _candidateId <= candidatesCount, \"Invalid Candidate\");\n        \n        //record that voter has voted\n        voters3[msg.sender] = true; \n       \n        //update candidate vote count\n        candidates[_candidateId].voteCount += 1;\n\n        //trigger voted event\n        emit votedEvent(_candidateId); \n    }\n    \n\n}\n\n",
  "sourcePath": "/Users/Physics/Code/ethElections/contracts/Election.sol",
  "compiler": {
    "name": "solc",
    "version": "0.4.24+commit.e67f0147.Emscripten.clang"
  },
  "schemaVersion": "2.0.1",
  "updatedAt": "2018-08-26T06:19:58.516Z"
}